:020000040800F2
:1000000000000220B9020008C1020008C502000871
:10001000DD020008E1020008F9020008000000000B
:1000200000000000000000000000000011030008B4
:10003000150300080000000019030008153000082F
:100040002D0300082D0300082D0300082D030008D0
:100050002D0300082D0300082D0300082D030008C0
:100060002D0300082D0300082D0300082D030008B0
:100070002D0300082D0300082D0300082D030008A0
:100080002D0300082D0300082D0300082D03000890
:100090002D0300082D0300082D0300082D03000880
:1000A0002D0300082D0300082D0300082D03000870
:1000B0002D0300082D030008592F00082D03000808
:1000C0002D0300082D0300082D0300082D03000850
:1000D0002D0300082D0300082D0300082D03000840
:1000E0002D0300082D0300082D0300082D03000830
:1000F0002D0300082D0300082D0300082D03000820
:100100002D0300082D0300082D0300082D0300080F
:100110002D0300082D0300082D0300082D030008FF
:100120002D0300082D0300082D0300082D030008EF
:100130002D0300082D0300082D0300082D030008DF
:100140002D0300082D0300082D0300082D030008CF
:100150002D0300082D0300082D0300082D030008BF
:100160002D0300082D0300082D0300082D030008AF
:100170002D0300082D0300082D0300082D0300089F
:100180002D0300082D03000800B583B002F078FDB0
:10019000384B394A1360394A136039490CE00A6810
:1001A0004B6801F10C04886803E01168196004339E
:1001B00004329842F9D82146324B9942EFD32E4B64
:1001C0001A68314B9A4204D12C4B1A682F4B9A4231
:1001D00000D0FEE7274B2E4A13602E4A13602E4BA9
:1001E0000AE0194651F8082B5B6802E00020106015
:1001F00004329A42FAD30B46284A9342F1D3244B55
:100200001B6813B9234B1B6803B1FEE702F0DCFE49
:1002100001A8694602F028FD214C224B1C1BA410AA
:10022000002504E01E4B53F8253098470135AC42B9
:10023000F8DC1D4C1D4B1C1BA410002504E01A4BC0
:1002400053F8253098470135AC42F8DC0198009905
:1002500002F0C2FE0546164C164B1C1BA41004E00F
:10026000013C134B53F824309847002CF8DC284607
:1002700002F0F4FCBABADECA000000202000002020
:100280003003000848030008785634123254769838
:10029000240000202801002048030008580300081B
:1002A00058030008580300085803000858030008C2
:1002B000580300085803000808B5FFF765FF00BFA2
:1002C00000BEFEE71EF0040F0CBFEFF30880EFF353
:1002D00009807146124A104700BEFEE700BEFEE7E5
:1002E0001EF0040F0CBFEFF30880EFF30980714696
:1002F0000C4A104700BEFEE71EF0040F0CBFEFF3E0
:100300000880EFF309807146074A104700BEFEE7F8
:1003100000BEFEE700BEFEE700BEFEE7704700003D
:10032000D9020008F50200080D03000800BEFEE730
:10033000243100080000002024000020243100089F
:100340000000001000000010240000202C010020FC
:08035000000000100000001085
:1003580010B5044601F02EFF064BA3FB00308009C0
:1003680000F092F84FF0FF302146002200F04AF8E2
:10037800002010BDD34D621008B50B4B1A6842F42B
:1003880000721A601A6842F480621A601A6842F4AD
:1003980080721A60032000F017F80F20FFF7D8FFCB
:1003A80002F028FE002008BD003C0240024A136803
:1003B80001331360704700BF28000020014B186804
:1003C800704700BF2800002010B50446C31E042B48
:1003D80003D90A48A42102F04BFC04F00700084A9C
:1003E800D36823F4E0631B041B0C43EA002040F0AD
:1003F800BF6040F40030D06010BD00BF203000085E
:1004080000ED00E070B504460E4615460F2A03D9E4
:100418001A48BC2102F02CFC0F2E03D91748BD2125
:1004280002F026FC164BDB68C3F30223C3F1070274
:10043800042A28BF0422191D062901D9D81E00E064
:100448000020012303FA02F2013A324002FA00F1D5
:1004580083405A1E2A400A43002C06DA04F00F048F
:100468001201D2B2074B1A5570BD1201D2B204F173
:10047800604404F5614484F8002370BD203000080E
:1004880000ED00E014ED00E00138B0F1807F0AD201
:10049800064B5860F021064A82F823100020986025
:1004A80007221A6070470120704700BF10E000E083
:1004B80000ED00E010B50446042805D020B1094835
:1004C8004FF4C27102F0D4FB042C05D1064A13681C
:1004D80043F00403136010BD034A136823F00403B8
:1004E800136010BD2030000810E000E0704700BF26
:1004F80008B5FFF7FBFF08BD30B405682C6824F485
:1005080080242C60046863608368402B04D10368EE
:100518009A600368D96003E0036899600368DA6049
:1005280030BC7047002800F0008110B5044603680D
:100538007F4A934231D0183293422ED018329342D8
:100548002BD01832934228D01832934225D0183233
:10055800934222D0183293421FD0183293421CD0B3
:1005680002F55672934218D01832934215D01832B9
:10057800934212D0183293420FD0183293420CD0C3
:100588001832934209D01832934206D01832934257
:1005980003D06848BF2102F06BFB6368C3B1B3F1B5
:1005A800007F15D0B3F1806F12D0B3F1C06F0FD0B8
:1005B800B3F1006F0CD0B3F1206F09D0B3F1406FE5
:1005C80006D0B3F1606F03D05A48C02102F050FB47
:1005D800A3683BB1402B05D0802B03D05548C121DF
:1005E80002F046FBE368B3F5007F04D01BB1514825
:1005F800C22102F03DFB2369B3F5806F04D01BB123
:100608004C48C32102F034FB63694BB1B3F5006F6A
:1006180006D0B3F5805F03D04648C42102F028FB1A
:10062800A3694BB1B3F5005F06D0B3F5804F03D093
:100638004048C52102F01CFBE36943B1B3F5807F54
:1006480005D0202B03D03B48C62102F011FB236ABA
:1006580063B1B3F5803F09D0B3F5003F06D0B3F5D9
:10066800403F03D03348C72102F002FB636A2BB135
:10067800042B03D02F48C82102F0FAFA636A23B387
:10068800A36A032B03D92B48CD2102F0F1FAE36AC0
:1006980063B1B3F5000F09D0B3F1807F06D0B3F191
:1006A800C07F03D02348CE2102F0E2FA236B63B166
:1006B800B3F5001F09D0B3F5800F06D0B3F5C00F0E
:1006C80003D01C48CF2102F0D3FA022384F8353036
:1006D80020680268184B13406168A2681143E268F9
:1006E80011432269114362691143A2691143E26906
:1006F8001143226A0A431343626A042A03D1E16A56
:10070800226B0A43134303602268536923F00703EB
:10071800616A0B43042901D1A16A0B43536100208C
:10072800E064012384F8353010BD0120704700BF14
:1007380010600240543000083F8010F00346002843
:1007480000F0088790F83520D2B2022A00F004871A
:1007580001680A6822F001020A60016800220A6042
:1007680001684A6001688A600168CA6001680A61B4
:100778000268212151610268AA498A4254D9A1F527
:1007880089618A424CD001F580618A4246D0A1F540
:1007980068718A4240D001F580618A423AD0A1F559
:1007A80089618A4233D001F580618A422CD0A1F553
:1007B80068718A4225D001F580618A421ED0A1F570
:1007C80089618A4217D001F580618A4210D0A1F56B
:1007D80068718A4209D001F580618A4202D14FF4DA
:1007E80080211EE04FF080711BE04FF4802118E05B
:1007F8004FF4802115E04FF4802112E04FF480710E
:100808000FE04FF480710CE04FF4807109E04FF471
:10081800807106E0844904E0834902E0824900E0EF
:100828008149824AD1600EE181498A4253D9A83967
:100838008A424CD001F580618A4246D0A1F56871A0
:100848008A4240D001F580618A423AD0A1F5896197
:100858008A4233D001F580618A422CD0A1F56871B3
:100868008A4225D001F580618A421ED0A1F58961AE
:100878008A4217D001F580618A4210D0A1F56871CB
:100888008A4209D001F580618A4202D14FF4802161
:100898001EE04FF080711BE04FF4802118E04FF408
:1008A800802115E04FF4802112E04FF480710FE0B1
:1008B8004FF480710CE04FF4807109E04FF48071BF
:1008C80006E0594904E0584902E0574900E0564912
:1008D800564A9160B7E057498A4253D948398A4203
:1008E8004CD001F580618A4246D0A1F568718A42F0
:1008F80040D001F580618A423AD0A1F589618A42E7
:1009080033D001F580618A422CD0A1F568718A4202
:1009180025D001F580618A421ED0A1F589618A42FD
:1009280017D001F580618A4210D0A1F568718A421A
:1009380009D001F580618A4202D14FF480211EE07E
:100948004FF080711BE04FF4802118E04FF48021B4
:1009580015E04FF4802112E04FF480710FE04FF45E
:1009680080710CE04FF4807109E04FF4807106E06B
:100978002D4904E02C4902E02B4900E02A492E4A7F
:10098800D16060E02D498A425AD001F580618A42DF
:1009980046D0A1F568718A4240D001F580618A424B
:1009A8003AD0A1F589618A4233D001F580618A4243
:1009B8002CD0A1F568718A4225D001F580618A4260
:1009C8001ED0A1F589618A4217D001F580618A425B
:1009D80010D0A1F568718A4209D001F580618A4278
:1009E80002D14FF480212CE04FF0807129E04FF4C0
:1009F800802126E04FF4802123E04FF4802120E07D
:100A08004FF480711DE04FF480711AE04FF480714B
:100A180017E04FF4807114E0034912E0024910E036
:100A280001490EE05864024004008000006402405E
:100A3800B860024058600240006002401060024006
:100A4800AC49AD4A91601A68AC498A4254D9A1F5BB
:100A580089618A424CD001F580618A4246D0A1F56D
:100A680068718A4240D001F580618A423AD0A1F586
:100A780089618A4233D001F580618A422CD0A1F580
:100A880068718A4225D001F580618A421ED0A1F59D
:100A980089618A4217D001F580618A4210D0A1F598
:100AA80068718A4209D001F580618A4202D14FF407
:100AB80000111EE04FF000611BE04FF4001118E038
:100AC8004FF4001115E04FF4001112E04FF40061EB
:100AD8000FE04FF400610CE04FF4006109E04FF4BF
:100AE800006106E0202104E0202102E0202100E04E
:100AF8002021834AD1600EE182498A4253D9A8391C
:100B08008A424CD001F580618A4246D0A1F56871CD
:100B18008A4240D001F580618A423AD0A1F58961C4
:100B28008A4233D001F580618A422CD0A1F56871E0
:100B38008A4225D001F580618A421ED0A1F58961DB
:100B48008A4217D001F580618A4210D0A1F56871F8
:100B58008A4209D001F580618A4202D14FF400111E
:100B68001EE04FF000611BE04FF4001118E04FF455
:100B7800001115E04FF4001112E04FF400610FE08E
:100B88004FF400610CE04FF4006109E04FF400619C
:100B980006E0202104E0202102E0202100E02021BD
:100BA800574A9160B7E058498A4253D948398A422E
:100BB8004CD001F580618A4246D0A1F568718A421D
:100BC80040D001F580618A423AD0A1F589618A4214
:100BD80033D001F580618A422CD0A1F568718A4230
:100BE80025D001F580618A421ED0A1F589618A422B
:100BF80017D001F580618A4210D0A1F568718A4248
:100C080009D001F580618A4202D14FF400111EE03B
:100C18004FF000611BE04FF4001118E04FF4001191
:100C280015E04FF4001112E04FF400610FE04FF4AB
:100C380000610CE04FF4006109E04FF4006106E048
:100C4800202104E0202102E0202100E020212A4A7E
:100C5800D16060E02D498A425AD001F580618A420C
:100C680046D0A1F568718A4240D001F580618A4278
:100C78003AD0A1F589618A4233D001F580618A4270
:100C88002CD0A1F568718A4225D001F580618A428D
:100C98001ED0A1F589618A4217D001F580618A4288
:100CA80010D0A1F568718A4209D001F580618A42A5
:100CB80002D14FF400112CE04FF0006129E04FF40D
:100CC800001126E04FF4001123E04FF4001120E05A
:100CD8004FF400611DE04FF400611AE04FF4006129
:100CE80017E04FF4006114E0202112E0202110E009
:100CF80020210EE004008000006002405864024099
:100D080000640240B860024058600240106002402F
:100D18002021AC4A91601A68AB498A4254D9A1F59E
:100D280089618A424CD001F580618A4246D0A1F59A
:100D380068718A4240D001F580618A423AD0A1F5B3
:100D480089618A4233D001F580618A422CD0A1F5AD
:100D580068718A4225D001F580618A421ED0A1F5CA
:100D680089618A4217D001F580618A4210D0A1F5C5
:100D780068718A4209D001F580618A4202D14FF434
:100D880000211EE04FF000711BE04FF4002118E035
:100D98004FF4002115E04FF4002112E04FF40071E8
:100DA8000FE04FF400710CE04FF4007109E04FF4CC
:100DB800007106E0082104E0082102E0082100E0B3
:100DC8000821824AD1600CE181498A4253D9A83965
:100DD8008A424CD001F580618A4246D0A1F56871FB
:100DE8008A4240D001F580618A423AD0A1F58961F2
:100DF8008A4233D001F580618A422CD0A1F568710E
:100E08008A4225D001F580618A421ED0A1F5896108
:100E18008A4217D001F580618A4210D0A1F5687125
:100E28008A4209D001F580618A4202D14FF400213B
:100E38001EE04FF000711BE04FF4002118E04FF462
:100E4800002115E04FF4002112E04FF400710FE08B
:100E58004FF400710CE04FF4007109E04FF4007199
:100E680006E0082104E0082102E0082100E008214A
:100E7800564A9160B5E057498A4253D948398A425F
:100E88004CD001F580618A4246D0A1F568718A424A
:100E980040D001F580618A423AD0A1F589618A4241
:100EA80033D001F580618A422CD0A1F568718A425D
:100EB80025D001F580618A421ED0A1F589618A4258
:100EC80017D001F580618A4210D0A1F568718A4275
:100ED80009D001F580618A4202D14FF400211EE059
:100EE8004FF000711BE04FF4002118E04FF400218F
:100EF80015E04FF4002112E04FF400710FE04FF4B9
:100F080000710CE04FF4007109E04FF4007106E045
:100F1800082104E0082102E0082100E00821294A0C
:100F2800D1605EE02C498A4258D001F580618A423E
:100F380046D0A1F568718A4240D001F580618A42A5
:100F48003AD0A1F589618A4233D001F580618A429D
:100F58002CD0A1F568718A4225D001F580618A42BA
:100F68001ED0A1F589618A4217D001F580618A42B5
:100F780010D0A1F568718A4209D001F580618A42D2
:100F880002D14FF400212AE04FF0007127E04FF41E
:100F9800002124E04FF4002121E04FF400211EE05D
:100FA8004FF400711BE04FF4007118E04FF400712A
:100FB80015E04FF4007112E0082110E008210EE05E
:100FC80008210CE0006002405864024000640240BE
:100FD800B860024058600240106002400821A44AEC
:100FE80091601A68A3498A4250D9A1F589618A4259
:100FF80048D001F580618A4242D0A1F568718A42E1
:101008003CD001F580618A4236D0A1F589618A42D7
:1010180030D001F580618A422AD0A1F568718A42F0
:1010280024D001F580618A421ED0A1F589618A42E7
:1010380017D001F580618A4210D0A1F568718A4203
:1010480009D001F580618A4202D14FF480311AE05B
:101058004FF4800117E04FF4803114E04FF48031F1
:1010680011E04FF480310EE040210CE040210AE00D
:10107800402108E0402106E07F4904E07E4902E083
:101088007D4900E07C497D4AD16002E17C498A4281
:101098004FD9A8398A4248D001F580618A4242D0A6
:1010A800A1F568718A423CD001F580618A4236D048
:1010B800A1F589618A4230D001F580618A422AD03F
:1010C800A1F568718A4224D001F580618A421ED058
:1010D800A1F589618A4217D001F580618A4210D052
:1010E800A1F568718A4209D001F580618A4202D16E
:1010F8004FF480311AE04FF4800117E04FF480314B
:1011080014E04FF4803111E04FF480310EE04021BB
:101118000CE040210AE0402108E0402106E0564961
:1011280004E0554902E0544900E05349534A9160AC
:10113800AFE054498A424FD948398A4248D001F52C
:1011480080618A4242D0A1F568718A423CD001F59B
:1011580080618A4236D0A1F589618A4230D001F592
:1011680080618A422AD0A1F568718A4224D001F5AB
:1011780080618A421ED0A1F589618A4217D001F5A3
:1011880080618A4210D0A1F568718A4209D001F5C0
:1011980080618A4202D14FF480311AE04FF4800115
:1011A80017E04FF4803114E04FF4803111E04FF430
:1011B80080310EE040210CE040210AE0402108E0A7
:1011C800402106E02C4904E02B4902E02A4900E0CE
:1011D8002949274AD1605CE02B498A4256D001F55B
:1011E80080618A4242D0A1F568718A423CD001F5FB
:1011F80080618A4236D0A1F589618A4230D001F5F2
:1012080080618A422AD0A1F568718A4224D001F50A
:1012180080618A421ED0A1F589618A4217D001F502
:1012280080618A4210D0A1F568718A4209D001F51F
:1012380080618A4202D14FF4803128E04FF4800166
:1012480025E04FF4803122E04FF480311FE04FF465
:1012580080311CE040211AE0402118E0402116E0CE
:10126800402114E0044912E0034910E002490EE06D
:10127800006002405864024001008000006402409F
:10128800B86002405860024010600240B349B44A56
:1012980091601A68B3498A4254D9A1F589618A4292
:1012A8004CD001F580618A4246D0A1F568718A4226
:1012B80040D001F580618A423AD0A1F589618A421D
:1012C80033D001F580618A422CD0A1F568718A4239
:1012D80025D001F580618A421ED0A1F589618A4234
:1012E80017D001F580618A4210D0A1F568718A4251
:1012F80009D001F580618A4202D14FF480111EE0C5
:101308004FF080611BE04FF4801118E04FF480111A
:1013180015E04FF4801112E04FF480610FE04FF4B4
:1013280080610CE04FF4806109E04FF4806106E0D1
:10133800102104E0102102E0102100E010218A4A67
:10134800D16000E189498A4253D9A8398A424CD0F0
:1013580001F580618A4246D0A1F568718A4240D081
:1013680001F580618A423AD0A1F589618A4233D079
:1013780001F580618A422CD0A1F568718A4225D096
:1013880001F580618A421ED0A1F589618A4217D091
:1013980001F580618A4210D0A1F568718A4209D0AE
:1013A80001F580618A4202D14FF480111EE04FF0AE
:1013B80080611BE04FF4801118E04FF4801115E0B4
:1013C8004FF4801112E04FF480610FE04FF4806118
:1013D8000CE04FF4806109E04FF4806106E01021D1
:1013E80004E0102102E0102100E010215E4A916023
:1013F800A9E05F498A4253D948398A424CD001F55D
:1014080080618A4246D0A1F568718A4240D001F5D0
:1014180080618A423AD0A1F589618A4233D001F5C8
:1014280080618A422CD0A1F568718A4225D001F5E5
:1014380080618A421ED0A1F589618A4217D001F5E0
:1014480080618A4210D0A1F568718A4209D001F5FD
:1014580080618A4202D14FF480111EE04FF0806112
:101468001BE04FF4801118E04FF4801115E04FF4A1
:10147800801112E04FF480610FE04FF480610CE0BE
:101488004FF4806109E04FF4806106E0102104E028
:10149800102102E0102100E01021314AD16052E011
:1014A80034498A424CD001F580618A4246D0A1F580
:1014B80068718A4240D001F580618A423AD0A1F52C
:1014C80089618A4233D001F580618A422CD0A1F526
:1014D80068718A4225D001F580618A421ED0A1F543
:1014E80089618A4217D001F580618A4210D0A1F53E
:1014F80068718A4209D001F580618A4202D14FF4AD
:1015080080111EE04FF080611BE04FF4801118E05D
:101518004FF4801115E04FF4801112E04FF4806110
:101528000FE04FF480610CE04FF4806109E04FF464
:10153800806106E0102104E0102102E0102100E0A3
:101548001021074A91600020D86483F8350083F899
:101558003400704701207047012070470100800067
:10156800006002405864024000640240B8600240D3
:101578005860024010600240F8B590F83440012CE1
:1015880025D01D4616460F460446012380F8343000
:10159800022380F835306A1E4FF6FE739A4204D94A
:1015A8000C484FF4B77101F063FB2268136823F00D
:1015B800010313602046394632462B46FEF79CFF4E
:1015C8002268136843F0010313600020F8BD02206D
:1015D800F8BD00BF543000082DE9F04F83B08046B5
:1015E8000F46A24B984223D003F5806398421FD040
:1015F80003F5806398421BD003F58063984217D0A7
:1016080003F58063984213D003F5806398420FD0A6
:1016180003F5806398420BD003F58063984207D0A6
:1016280003F58063984203D09148C52101F020FB5F
:101638003B881BB98E48C62101F01AFB7B68012B39
:1016480022D9112B20D0022B1ED0122B1CD0894A54
:10165800934219D002F58012934215D002F58012F8
:10166800934211D0A2F5F81293420DD002F58012E0
:10167800934209D002F58012934205D0032B03D080
:101688007B48C72101F0F4FABB68022B03D97848DC
:10169800C82101F0EDFA002428E1A1460125A54062
:1016A8003B6803EA050AAA4540F01F817B68022BC4
:1016B80001D0122B4AD13B69C3B3092B36D0ABB347
:1016C800A3B39BB393B3012B30D02FD0022B2DD0D3
:1016D8002CD02BD0032B29D0042B27D026D025D0D3
:1016E800052B23D022D0092B20D0062B1ED0092B66
:1016F8001CD0072B1AD019D018D0082B16D015D00B
:1017080014D0092B12D011D00A2B0FD00ED00B2BCE
:101718000CD00C2B0AD009D00D2B07D00C2B05D0E0
:101728000F2B03D05248D92101F0A2FAE608083657
:1017380058F8261004F0070080000F23834021EAA0
:1017480003023B698340134348F82630D8F8003039
:101758004FEA440B032606FA0BF6F64306EA0302A1
:101768007B6803F0030303FA0BF31343C8F8003054
:101778007B685A1E012A03D9112B01D0122B1CD1C8
:10178800FB68032B03D93A48EC2101F071FAD8F829
:10179800083006EA0302FB6803FA0BF31343C8F8A0
:1017A8000830D8F8043023EA05037D68C5F300152E
:1017B80005FA09F51D43C8F80450D8F80C30334031
:1017C800BE6806FA0BF61E43C8F80C607B6813F077
:1017D800805F00F08A80284B5A6C42F480425A6439
:1017E8005B6C03F480430193019BA308991C234A73
:1017F80052F8211004F0030080000F22824021EAF1
:1018080002011A4A90453BD002F5806290452BD0E0
:1018180002F58062904525D002F5806290451FD080
:1018280002F58062904519D002F58062904513D088
:1018380002F5806290450DD002F58062904507D090
:1018480002F58062904501D108221AE0092218E0C9
:10185800072216E0062214E0052212E0042210E016
:1018680003220EE002220CE001220AE000000240FE
:101878008430000800001110003802400038014090
:10188800002282400A4302331B4941F823201B4BA4
:101898001A686FEA0A0303EA0201786810F4803FC5
:1018A80001D04AEA0201154A1160526803EA0201AE
:1018B800786810F4003F01D04AEA02010F4A5160EB
:1018C800926803EA0201786810F4801F01D04AEA9E
:1018D80002010A4A9160D2681340796811F4001F26
:1018E80001D04AEA0203054AD36001340F2C7FF67F
:1018F800D4AE03B0BDE8F08F00380140003C014091
:1019080030B583B0044603680F2B04D9B24840F2BF
:10191800171101F0ADF9236813F0010F5FD0636868
:10192800012B06D9052B04D0AB484FF48E7101F07A
:101938009FF9AA4B9B6803F00C03042B0AD0A74B12
:101948009B6803F00C03082B0DD1A44B5B6813F4C0
:10195800800F08D0A14B1B6813F4003F3FD0636889
:10196800002B3CD1FBE100229D4B1A70FEF726FDAF
:10197800054607E0FEF722FD401B41F288339842F6
:1019880000F2EF81954B1B6813F4003FF2D12279E6
:10199800934B1A7063688BB1FEF710FD054607E09C
:1019A800FEF70CFD401B41F28833984200F2DB81C0
:1019B8008A4B1B6813F4003FF2D010E0FEF7FEFCE0
:1019C800054607E0FEF7FAFC401B41F288339842CF
:1019D80000F2CB81814B1B6813F4003FF2D12368DE
:1019E80013F0020F6DD0E368012B04D97A4840F256
:1019F8005D1101F03DF923691F2B04D976484FF496
:101A0800AF7101F035F9754B9B6813F00C0F0AD0D4
:101A1800724B9B6803F00C03082B1CD16F4B5B685F
:101A280013F4800F17D16D4B1B6813F0020F03D00E
:101A3800E368012B40F09B816848026822F0F801B6
:101A48002269F82393FAA3F3B3FA83F3DBB29A403B
:101A58000A43026035E0E3680BB30122614B1A6068
:101A6800FEF7ACFC054605E0FEF7A8FC401B642821
:101A780000F27F81594B1B6813F0020FF4D05748CE
:101A8800036823F0F8012269F82393FAA3F3B3FA61
:101A980083F3DBB29A4041EA0203036011E00022BB
:101AA800504B1A60FEF78AFC054605E0FEF786FCF7
:101AB800401B642800F25F81484B1B6813F0020F3B
:101AC800F4D1236813F0080F2ED06369012B04D9D1
:101AD80041484FF4CF7101F0CBF8636993B101220B
:101AE800414B1A60FEF76AFC054605E0FEF766FC06
:101AF800401B642800F24181384B5B6F13F0020FE2
:101B0800F4D011E00022384B1A60FEF757FC054666
:101B180005E0FEF753FC401B642800F230812F4B90
:101B28005B6F13F0020FF4D1236813F0040F72D027
:101B3800A368012B06D9052B04D027484FF4E4717C
:101B480001F096F8254B1A6C42F080521A641B6C0F
:101B580003F080530193019B244A136843F4807374
:101B68001360FEF72BFC054605E0FEF727FC401B3B
:101B7800642800F206811D4B1B6813F4807FF4D0A3
:101B880000221B4B1A70FEF719FC054607E0FEF70A
:101B980015FC401B41F28833984200F2F4800F4B49
:101BA8001B6F13F0020FF2D1227A114B1A70A3683F
:101BB80003B3FEF703FC054607E0FEF7FFFB401BF7
:101BC80041F28833984200F2E080044B1B6F13F017
:101BD800020FF2D01FE000BFC430000800380240F6
:101BE8000238024000004742800E47420070004021
:101BF80070380240FEF7E2FB054607E0FEF7DEFB21
:101C0800401B41F28833984200F2C180664B1B6F3B
:101C180013F0020FF2D1A369022B04D963484FF4E1
:101C2800037101F025F8A369002B00F0B2805E4A29
:101C3800926802F00C02082A00F0AD80022B7BD1DA
:101C4800E3693BB1B3F5800F04D0584840F2152141
:101C580001F00EF8236A3F2B04D9544840F21621AC
:101C680001F006F8636AC03BF02B04D94F4840F2F4
:101C7800172100F0FDFFA36A022B0AD0042B08D01D
:101C8800062B06D0082B04D048484FF4067100F004
:101C9800EFFFE36A043B0B2B04D9444840F21921B7
:101CA80000F0E6FF0022424B1A60FEF787FB05466C
:101CB80004E0FEF783FB401B64286ED83A4B1B6890
:101CC80013F0007FF5D1E169236A1943626A47F688
:101CD800C07393FAA3F3B3FA83F3DBB29A401143C8
:101CE800A36A5B08013B4FF4403292FAA2F2B2FABF
:101CF80082F2D2B293400B43E16A4FF0706292FADB
:101D0800A2F2B2FA82F2D2B201FA02F21343264ADE
:101D180053600122264B1A60FEF750FB044604E08C
:101D2800FEF74CFB001B642839D81F4B1B6813F0C7
:101D3800007FF5D0002035E000221D4B1A60FEF729
:101D48003DFB044604E0FEF739FB001B642828D855
:101D5800154B1B6813F0007FF5D1002022E001200D
:101D680020E003201EE003201CE003201AE00120ED
:101D780018E0032016E0032014E0032012E00320FB
:101D880010E003200EE003200CE003200AE003200B
:101D980008E0002006E0012004E0032002E0032020
:101DA80000E0032003B030BD00380240C430000812
:101DB8006000474270B504460D460368013B0E2B90
:101DC80004D995484FF41F7100F052FF072D04D92C
:101DD800914840F27D2100F04BFF904B1B6803F0C7
:101DE8000F03AB4280F09880EAB28C4B1A701B68E4
:101DF80003F00F03AB4240F06B81236813F0020F2E
:101E08001DD0A368A3B1802B12D0902B10D0A02B8B
:101E18000ED0B02B0CD0C02B0AD0D02B08D0E02B82
:101E280006D0F02B04D07C4840F2932100F020FF2C
:101E38007B498B6823F0F002A36813438B60236807
:101E480013F0010F00F002816368032B04D9724874
:101E580040F29A2100F00CFF6268012A05D1704B0C
:101E68001B6813F4003F0FD134E1931E012B05D8F2
:101E78006B4B1B6813F0007F06D12DE1684B1B6884
:101E880013F0020F00F02A8165498B6823F00303E1
:101E980013438B60FEF792FA05466368012B0FD156
:101EA80007E0FEF78BFA401B41F28833984200F2B4
:101EB80017815B4B9B6803F00C03042BF1D1C5E041
:101EC800022B0FD107E0FEF779FA401B41F2883365
:101ED800984200F20781524B9B6803F00C03082BD1
:101EE800F1D1B3E0032B11D14D4B9B68FEF766FA95
:101EF800401B41F288339842F6D9F5E0FEF75EFAC6
:101F0800401B41F28833984200F2F080444B9B68B2
:101F180013F00C0FF2D199E0236813F0020F1DD0D3
:101F2800A368A3B1802B12D0902B10D0A02B0ED079
:101F3800B02B0CD0C02B0AD0D02B08D0E02B06D069
:101F4800F02B04D0344840F2ED2100F091FE3449E2
:101F58008B6823F0F002A36813438B60236813F0A7
:101F6800010F6BD06368032B04D92B484FF43D71E4
:101F780000F07EFE6268012A05D1294B1B6813F424
:101F8800003F0FD1B4E0931E012B05D8244B1B68EA
:101F980013F0007F06D1ADE0214B1B6813F0020F50
:101FA80000F0AA801E498B6823F0030313438B605B
:101FB800FEF704FA06466368012B0FD107E0FEF727
:101FC800FDF9801B41F28833984200F29780144B48
:101FD8009B6803F00C03042BF1D12FE0022B0FD1E7
:101FE80007E0FEF7EBF9801B41F28833984200F2D4
:101FF80087800B4B9B6803F00C03082BF1D11DE085
:10200800032B16D1064B9B68FEF7D8F9801B41F2CB
:1020180088339842F6D975E0C4300008003C024085
:1020280000380240FEF7CAF9801B41F28833984213
:102038006AD8374B9B6813F00C0FF3D1EAB2354BD3
:102048001A701B6803F00F03AB425FD1236813F0CB
:10205800040F19D0E36883B1B3F5805F0DD0B3F5F1
:10206800A05F0AD0B3F5C05F07D0B3F5E05F04D036
:10207800294840F24E3100F0FBFD25498B6823F4D6
:10208800E052E36813438B60236813F0080F1AD0FB
:10209800236983B1B3F5805F0DD0B3F5A05F0AD093
:1020A800B3F5C05F07D0B3F5E05F04D01A4840F23B
:1020B800553100F0DDFD164A936823F46043216929
:1020C80043EAC10393600F20FEF742F9002070BD78
:1020D800012070BD012070BD012070BD012070BDC0
:1020E800032070BD032070BD032070BD032070BDA8
:1020F800012070BD012070BD012070BD032070BD9E
:10210800032070BD032070BD032070BD012070BD89
:1021180000380240003C0240C4300008224B9B6853
:1021280003F00C03042B3DD0082B01D01F48704747
:102138001D4B586800F03F005B6813F4800F10D007
:102148001B4BB3FBF0F3184A506847F6C0721040B7
:1021580092FAA2F2B2FA82F2D2B2D04000FB03F3B2
:102168000FE0124BB3FBF0F30F4A506847F6C0720A
:10217800104092FAA2F2B2FA82F2D2B2D04000FB38
:1021880003F3094A506800F440304FF4403292FAA1
:10219800A2F2B2FA82F2D2B2D04001304000B3FBD0
:1021A800F0F0704702487047003802400024F400FD
:1021B80000127A0008B5FFF7B1FF094B9B6803F0DE
:1021C800F002F02393FAA3F3B3FA83F3DBB222FA13
:1021D80003F3044AD35CD840034B186008BD00BF22
:1021E80000380240B43000081C00002030B4036AF4
:1021F80023F001030362036A4468826922F07302D0
:102208000D682A4323F002038D682B430F4DA84223
:1022180005D005F58065A84203D1012502E0012516
:1022280000E000255DB123F00803CD682B4323F0BF
:10223800040324F440744D692C438D692C43446095
:1022480082614A684263036230BC70470000014003
:102258002DE9F04104460E46036A23F480730362B5
:10226800056AD0F80480C76927F073030F681F4315
:1022780025F400738D6843EA0525204B984205D064
:1022880003F58063984203D1012302E0012300E0B3
:1022980000235BB3F36833B1082B04D0184841F22C
:1022A800283100F0E5FCB369B3F5007F05D023B110
:1022B800134841F2293100F0DBFC7369B3F5807FE4
:1022C80005D023B10E4841F22A3100F0D1FC25F4A3
:1022D8000065F36845EA032525F4806528F440582D
:1022E800736948EA0318B36948EA0318C4F8048014
:1022F800E7617368E3632562BDE8F081000001408F
:10230800F43000082DE9F04104460F46036A23F42F
:1023180080530362056AD0F80480C66926F4E64350
:102328000E6843EA062625F400538D6843EA05350E
:10233800114B984205D003F58063984203D10123DD
:1023480002E0012300E0002373B17B69B3F5807FCD
:1023580005D023B1094841F26E3100F089FC28F418
:1023680080487B6948EA8318C4F80480E6617B6882
:1023780023642562BDE8F08100000140F4300008C4
:10238800704700BF704700BF704700BF704700BF6D
:10239800704700BF704700BF10B5044603681A694C
:1023A80012F0020F17D0DA6812F0020F13D06FF094
:1023B80002021A610123037603689B6913F0030F75
:1023C80002D0FFF7E3FF04E0FFF7DEFF2046FFF748
:1023D800DFFF0023237623681A6912F0040F19D04F
:1023E800DA6812F0040F15D06FF004021A610223A4
:1023F800237623689B6913F4407F03D02046FFF7B8
:10240800C5FF05E02046FFF7BFFF2046FFF7C0FFE6
:102418000023237623681A6912F0080F19D0DA68A6
:1024280012F0080F15D06FF008021A610423237602
:102438002368DB6913F0030F03D02046FFF7A6FFDC
:1024480005E02046FFF7A0FF2046FFF7A1FF002385
:10245800237623681A6912F0100F19D0DA6812F07F
:10246800100F15D06FF010021A6108232376236825
:10247800DB6913F4407F03D02046FFF787FF05E0B0
:102488002046FFF781FF2046FFF782FF00232376CF
:1024980023681A6912F0010F09D0DA6812F0010FE7
:1024A80005D06FF001021A612046FFF76BFF236821
:1024B8001A6912F0800F09D0DA6812F0800F05D07F
:1024C8006FF080021A61204600F0C2FB23681A6987
:1024D80012F0400F09D0DA6812F0400F05D06FF003
:1024E80040021A612046FFF755FF23681A6912F067
:1024F800200F09D0DA6812F0200F05D06FF0200203
:102508001A61204600F0A2FB10BD00BF0368454ACF
:10251800904214D0B0F1804F13D0A2F57C42904283
:1025280011D002F5806290420FD002F5806290428D
:102538000DD002F5784290420BD101220AE0012227
:1025480008E0012206E0012204E0012202E0012263
:1025580000E000221AB123F070034A681343314A9D
:1025680090422CD0B0F1804F2BD0A2F57C42904203
:1025780029D002F58062904227D002F5806290420D
:1025880025D002F57842904223D002F5705290424D
:1025980021D002F5806290421FD002F580629042FD
:1025A8001DD0A2F5983290421BD002F5806290426D
:1025B80019D002F58062904217D1012216E001225B
:1025C80014E0012212E0012210E001220EE00122B3
:1025D8000CE001220AE0012208E0012206E00122C3
:1025E80004E0012202E0012200E000221AB123F4F3
:1025F8004073CA68134303608B68C3620B688362C5
:10260800084B984205D003F58063984203D1012313
:1026180002E0012300E000230BB10B6903630123EF
:102628004361704700000140002871D010B504468E
:102638000368384A934237D0B3F1804F34D0A2F5BB
:102648007C42934230D002F5806293422CD002F54E
:102658008062934228D002F58062934224D002F52A
:102668008062934220D002F5704293421CD002F55A
:102678007052934218D002F58062934214D002F54A
:102688008062934210D0A2F5983293420CD002F5A2
:102698008062934208D002F58062934204D01E48BB
:1026A80040F2014100F0E4FAA36863B1102B0AD0AC
:1026B800202B08D0402B06D0602B04D0164840F2BF
:1026C800024100F0D5FA236953B1B3F5807F07D0F2
:1026D800B3F5007F04D0104840F2034100F0C8FA77
:1026E80094F8393013F0FF0F05D1002384F83830FF
:1026F8002046FFF745FE022384F83930214651F879
:10270800040BFFF703FF012384F83930002010BDC4
:102718000120704700000140F43000082DE9F04125
:1027280004460E46036A23F010030362056AD0F8D4
:102738000480876927F4E6430F6843EA072725F0F2
:1027480020038D6843EA0515204B984205D003F510
:102758008063984203D1012302E0012300E00023B3
:102768005BB3F36833B1082B04D0194841F2142144
:1027780000F07EFAB369B3F5007F05D023B11448A1
:1027880041F2152100F074FA7369B3F5807F05D022
:1027980023B10F4841F2162100F06AFA25F08005AE
:1027A800F36845EA031525F0400528F44068736985
:1027B80048EA8308B36948EA8308C4F80480A76133
:1027C8007368A3632562BDE8F08100BF0000014083
:1027D800F430000890F83830012B00F04B8170B5C8
:1027E80016460D460446012380F8383062B1042AA3
:1027F8000AD0082A08D00C2A06D0182A04D09E48E5
:1028080040F66C4100F034FA2B68602B06D0702B30
:1028180004D0994840F66D4100F02AFAAB6833B10C
:10282800022B04D0944840F66E4100F021FAEB6880
:1028380033B1082B04D0904840F66F4100F018FAE5
:10284800AB69B3F5007F05D023B18B484FF44761DE
:1028580000F00EFA6B69B3F5807F05D023B1864886
:1028680040F6714100F004FA2B6933B1042B04D00F
:10287800814840F6724100F0FBF9022384F83930B0
:102888000C2E00F2F080DFE816F00D00EE00EE00EE
:10289800EE005500EE00EE00EE008E00EE00EE00B9
:1028A800EE00BE002368754A93422FD0B3F1804FE3
:1028B8002CD0A2F57C42934228D002F58062934244
:1028C80024D002F58062934220D002F578429342E8
:1028D8001CD002F57052934218D002F580629342E0
:1028E80014D002F58062934210D0A2F59832934238
:1028F8000CD002F58062934208D002F580629342C0
:1029080004D05D4840F67A4100F0B2F920682946C3
:10291800FFF76CFC2268936943F00803936122680F
:10292800936923F004039361226891692B690B432F
:10293800936198E02368514A93421FD0B3F1804FC6
:102948001CD0A2F57C42934218D002F580629342D3
:1029580014D002F58062934210D002F57842934277
:102968000CD002F57052934208D0A2F594329342EB
:1029780004D0414840F6894100F07AF92068294698
:10298800FFF7CCFE2268936943F4006393612268E1
:10299800936923F48063936122689369296943EA00
:1029A800012393615FE02368344A934217D0B3F15F
:1029B800804F14D0A2F57C42934210D002F5806279
:1029C80093420CD002F58062934208D002F5784217
:1029D800934204D0284840F6984100F049F920680D
:1029E8002946FFF735FC2268D36943F00803D36111
:1029F8002268D36923F00403D3612268D1692B6963
:102A08000B43D3612FE023681C4A934217D0B3F1DC
:102A1800804F14D0A2F57C42934210D002F5806218
:102A280093420CD002F58062934208D002F57842B6
:102A3800934204D0104840F6A74100F019F92068E5
:102A48002946FFF75FFC2268D36943F40063D3612A
:102A58002268D36923F48063D3612268D369296922
:102A680043EA0123D361012384F83930002084F834
:102A7800380070BD02207047F430000800000140A3
:102A880070B504460E461546254B98422FD0B0F136
:102A9800804F2CD0A3F57C43984228D003F580635F
:102AA800984224D003F58063984220D003F57843F8
:102AB80098421CD003F57053984218D003F58063F0
:102AC800984214D003F58063984210D0A3F5983348
:102AD80098420CD003F58063984208D003F58063D0
:102AE800984204D00F4841F2992100F0C1F866B12C
:102AF800042E0AD0082E08D00C2E06D0182E04D08A
:102B0800084841F29A2100F0B3F80123B340226A41
:102B180022EA03032362236AB5401D43256270BD80
:102B280000000140F430000838B504460D4603683B
:102B38003E4A934212D0B3F1804F0FD0A2F57C42A7
:102B480093420BD002F58062934207D002F580626F
:102B5800934203D002F57842934206D135B3042D4F
:102B680024D0082D22D00C2D20D0314A934202D1F6
:102B7800E5B1042D1AD02F4A934200D1B5B12E4A9F
:102B8800934200D195B12D4A934202D175B1042DDB
:102B98000CD02B4A934200D145B12A4A934200D126
:102BA80025B1294840F2AE4100F062F80C2D1FD83B
:102BB800DFE805F0071E1E1E0D1E1E1E131E1E1E1C
:102BC80019002268D36843F00203D36010E022683A
:102BD800D36843F00403D3600AE02268D36843F063
:102BE8000803D36004E02268D36843F01003D3607D
:102BF800206829460122FFF743FF23680B4A9342C6
:102C080005D002F58062934203D1012202E001223D
:102C180000E000221AB15A6C42F400425A64226859
:102C2800136843F001031360002038BD0000014021
:102C380000400140004401400048014000180040A5
:102C4800001C004000200040F4300008704700BF1E
:102C5800704700BFFEE700BF08B50120FFF7FAFF85
:102C680001230360014B0B60704700BF0400002084
:102C780008B5FFF7F1FF00BF08B500F001F808BD7F
:102C88000C4B1A6842F001021A60002199601A6818
:102C980022F0847222F480321A60074A5A601A6855
:102CA80022F480221A60D9604FF00062034B9A60C8
:102CB800704700BF003802401030002400ED00E0EB
:102CC800234B9B6803F00C03042B07D0082B09D077
:102CD800002B2DD11F4A204B1A602CE01F4A1E4B97
:102CE8001A6028E01A4B5A685B6803F03F0312F435
:102CF800800F09D0194AB2FBF3F2154B5B68C3F396
:102D0800881303FB02F208E0124AB2FBF3F3104AFD
:102D18005168C1F3881101FB03F20D4B5B68C3F3E3
:102D2800014301335B00B2FBF3F30B4A136002E08B
:102D3800084A094B1A60064B9B68C3F30313084AF9
:102D4800D25CD2B204490B68D3400B60704700BF15
:102D5800003802400024F4001C00002000127A0011
:102D68000C0000202DE9F04385B08046474E336BB8
:102D780043F008033363336B03F008030193019BAB
:102D8800434D4FF440432B6002236B600024AC603A
:102D98004FF00309C5F80C902B613E4F3846294681
:102DA800FEF71AFC4FF440532B6001236B60AB60B5
:102DB800C5F80C9038462946FEF70EFC336C43F0F4
:102DC80004033364336C03F004030293029B324D13
:102DD8006C60AC60A7F501372F606823EB602C614D
:102DE8006C612846FFF720FC2C4960230B604C617E
:102DF80008F1FF334B608C60CC608C610C61284615
:102E08000822FFF7E7FC28460821FFF78DFEFB683C
:102E180043F00903FB600720FDF7D6FA1E20214680
:102E28002246FDF7EFFA4FF080421D4B1A60336BD4
:102E380043F400133363336B03F400130393039BCE
:102E4800184D2846FDF77AFC174B2B604FF080632E
:102E58006B604023AB60EC604FF480632B614FF4F0
:102E680000636B61AC614FF48073EB614FF4003326
:102E78002B626C622846FDF755FB28460B490C4A25
:102E88003023FEF779FB05B0BDE8F0830038024037
:102E9800E0000020000C024084000020C000002058
:102EA80000E100E03400002000600240F40000204F
:102EB8003C08004070B594B01F4B1A6C42F0805229
:102EC8001A641B6C03F080530193019B1B4B1A6817
:102ED80042F480421A601B6803F480430293029B09
:102EE8000224089401230B9310230C930E940026BC
:102EF8000F9610934FF4A873119304251295139508
:102F080008A8FEF7FDFC05230393049405964FF4E7
:102F180080530693079603A82146FEF74BFFFFF759
:102F280049F9074BA3FB00308009FDF7ADFA2846A5
:102F3800FDF7C0FA14B070BD0038024000700040C0
:102F4800D34D62100138014BD86370470008004028
:102F580008B54FF08042154BC3F880211448FFF79D
:102F68001BFA144B1B68022B05D10022114B1A6067
:102F78000122114B1A60104B1B6873B10F4A13687A
:102F880001331360322B04D100230B4A13600B4A20
:102F980013600020FFF7D6FF08BD4320FFF7D2FFDC
:102FA800044A13680133136008BD00BF00E100E064
:102FB8008400002024010020DC00002030000020D4
:102FC80008B5FDF7D9F9FFF775FFFFF779FE08BDDA
:102FD80008B5FFF755FEFFF76DFF00F00BF843202B
:102FE800FFF7C0FE024BD3F80021D3F80032F9E70F
:102FF80000E100E008B50320FDF7E6F94FF0FF30E7
:1030080000210A46FDF7FEF908BD00BF08B5FDF727
:10301800CDF9FDF76DFA08BD2E2E2F7379737465FF
:103028006D2F7372632F73746D333266342D68613C
:103038006C2F73746D3332663478785F68616C5FB7
:10304800636F727465782E63000000002E2E2F7354
:10305800797374656D2F7372632F73746D33326671
:10306800342D68616C2F73746D3332663478785FF1
:1030780068616C5F646D612E630000002E2E2F73F3
:10308800797374656D2F7372632F73746D33326641
:10309800342D68616C2F73746D3332663478785FC1
:1030A80068616C5F6770696F2E6300000000000044
:1030B8000102030401020304060708092E2E2F73D8
:1030C800797374656D2F7372632F73746D33326601
:1030D800342D68616C2F73746D3332663478785F81
:1030E80068616C5F7263632E630000002E2E2F737D
:1030F800797374656D2F7372632F73746D333266D1
:10310800342D68616C2F73746D3332663478785F50
:0C31180068616C5F74696D2E630000003C
:10312400785634122C00002000000000000000003B
:103134000000000001020304060708090024F4004B
:0431440032547698F3
:040000050800018965
:00000001FF
