:020000040800F2
:1000000000000220B9020008C1020008C502000871
:10001000DD020008E1020008F9020008000000000B
:1000200000000000000000000000000011030008B4
:100030001503000800000000190300080121000852
:100040002D0300082D0300082D0300082D030008D0
:100050002D0300082D0300082D0300082D030008C0
:100060002D0300082D0300082D0300082D030008B0
:100070002D0300082D0300082D0300082D030008A0
:100080002D0300082D0300082D0300082D03000890
:100090002D0300082D0300082D0300082D03000880
:1000A0002D0300082D0300082D0300082D03000870
:1000B0002D0300082D0300082D0300082D03000860
:1000C0002D0300082D0300082D0300082D03000850
:1000D0002D0300082D0300082D0300082D03000840
:1000E0002D0300082D0300082D0300082D03000830
:1000F0002D0300082D0300082D0300082D03000820
:100100002D0300082D0300082D0300082D0300080F
:100110002D0300082D0300082D0300082D030008FF
:100120002D0300082D0300082D0300082D030008EF
:100130002D0300082D0300082D0300082D030008DF
:100140002D0300082D0300082D0300082D030008CF
:100150002D0300082D0300082D0300082D030008BF
:100160002D0300082D0300082D0300082D030008AF
:100170002D0300082D0300082D0300082D0300089F
:100180002D0300082D03000800B583B001F026FE02
:10019000384B394A1360394A136039490CE00A6810
:1001A0004B6801F10C04886803E01168196004339E
:1001B00004329842F9D82146324B9942EFD32E4B64
:1001C0001A68314B9A4204D12C4B1A682F4B9A4231
:1001D00000D0FEE7274B2E4A13602E4A13602E4BA9
:1001E0000AE0194651F8082B5B6802E00020106015
:1001F00004329A42FAD30B46284A9342F1D3244B55
:100200001B6813B9234B1B6803B1FEE701F052FFD3
:1002100001A8694601F0D6FD214C224B1C1BA410FD
:10022000002504E01E4B53F8253098470135AC42B9
:10023000F8DC1D4C1D4B1C1BA410002504E01A4BC0
:1002400053F8253098470135AC42F8DC0198009905
:1002500001F038FF0546164C164B1C1BA41004E099
:10026000013C134B53F824309847002CF8DC284607
:1002700001F0A2FDBABADECA000000202000002072
:100280003003000848030008785634123254769838
:10029000240000201C010020480300085803000827
:1002A00058030008580300085803000858030008C2
:1002B000580300085803000808B5FFF765FF00BFA2
:1002C00000BEFEE71EF0040F0CBFEFF30880EFF353
:1002D00009807146124A104700BEFEE700BEFEE7E5
:1002E0001EF0040F0CBFEFF30880EFF30980714696
:1002F0000C4A104700BEFEE71EF0040F0CBFEFF3E0
:100300000880EFF309807146074A104700BEFEE7F8
:1003100000BEFEE700BEFEE700BEFEE7704700003D
:10032000D9020008F50200080D03000800BEFEE730
:1003300010220008000000202400002010220008E5
:100340000000001000000010240000202001002008
:08035000000000100000001085
:1003580010B5044601F028F8064BA3FB00308009CD
:1003680000F092F84FF0FF302146002200F04AF8E2
:10037800002010BDD34D621008B50B4B1A6842F42B
:1003880000721A601A6842F480621A601A6842F4AD
:1003980080721A60032000F017F80F20FFF7D8FFCB
:1003A80001F09EFE002008BD003C0240024A13688E
:1003B80001331360704700BF28000020014B186804
:1003C800704700BF2800002010B50446C31E042B48
:1003D80003D90A48A42101F0F9FC04F00700084AEF
:1003E800D36823F4E0631B041B0C43EA002040F0AD
:1003F800BF6040F40030D06010BD00BF0C21000881
:1004080000ED00E070B504460E4615460F2A03D9E4
:100418001A48BC2101F0DAFC0F2E03D91748BD2178
:1004280001F0D4FC164BDB68C3F30223C3F10702C7
:10043800042A28BF0422191D062901D9D81E00E064
:100448000020012303FA02F2013A324002FA00F1D5
:1004580083405A1E2A400A43002C06DA04F00F048F
:100468001201D2B2074B1A5570BD1201D2B204F173
:10047800604404F5614484F8002370BD0C21000831
:1004880000ED00E014ED00E00138B0F1807F0AD201
:10049800064B5860F021064A82F823100020986025
:1004A80007221A6070470120704700BF10E000E083
:1004B80000ED00E010B50446042805D020B1094835
:1004C8004FF4C27101F082FC042C05D1064A13686E
:1004D80043F00403136010BD034A136823F00403B8
:1004E800136010BD0C21000810E000E0704700BF49
:1004F80008B5FFF7FBFF08BD30B405682C6824F485
:1005080080242C60046863608368402B04D10368EE
:100518009A600368D96003E0036899600368DA6049
:1005280030BC7047002800F0008110B5044603680D
:100538007F4A934231D0183293422ED018329342D8
:100548002BD01832934228D01832934225D0183233
:10055800934222D0183293421FD0183293421CD0B3
:1005680002F55672934218D01832934215D01832B9
:10057800934212D0183293420FD0183293420CD0C3
:100588001832934209D01832934206D01832934257
:1005980003D06848BF2101F019FC6368C3B1B3F107
:1005A800007F15D0B3F1806F12D0B3F1C06F0FD0B8
:1005B800B3F1006F0CD0B3F1206F09D0B3F1406FE5
:1005C80006D0B3F1606F03D05A48C02101F0FEFB9A
:1005D800A3683BB1402B05D0802B03D05548C121DF
:1005E80001F0F4FBE368B3F5007F04D01BB1514878
:1005F800C22101F0EBFB2369B3F5806F04D01BB176
:100608004C48C32101F0E2FB63694BB1B3F5006FBD
:1006180006D0B3F5805F03D04648C42101F0D6FB6D
:10062800A3694BB1B3F5005F06D0B3F5804F03D093
:100638004048C52101F0CAFBE36943B1B3F5807FA7
:1006480005D0202B03D03B48C62101F0BFFB236A0D
:1006580063B1B3F5803F09D0B3F5003F06D0B3F5D9
:10066800403F03D03348C72101F0B0FB636A2BB188
:10067800042B03D02F48C82101F0A8FB636A23B3D9
:10068800A36A032B03D92B48CD2101F09FFBE36A12
:1006980063B1B3F5000F09D0B3F1807F06D0B3F191
:1006A800C07F03D02348CE2101F090FB236B63B1B8
:1006B800B3F5001F09D0B3F5800F06D0B3F5C00F0E
:1006C80003D01C48CF2101F081FB022384F8353088
:1006D80020680268184B13406168A2681143E268F9
:1006E80011432269114362691143A2691143E26906
:1006F8001143226A0A431343626A042A03D1E16A56
:10070800226B0A43134303602268536923F00703EB
:10071800616A0B43042901D1A16A0B43536100208C
:10072800E064012384F8353010BD0120704700BF14
:1007380010600240402100083F8010F0F8B590F8A2
:100748003440012C3ED01D4616460F460446012370
:1007580080F83430022380F835306A1E4FF6FE7375
:100768009A4204D918484FF4C77101F02FFB226848
:10077800136823F0010313602046394632462B469E
:10078800FFF7BAFE2268136843F01003136022686B
:10079800136843F0080313602268136843F00403E6
:1007A80013602268536943F0800353612268136819
:1007B80043F0020313602268136843F001031360D7
:1007C8000020F8BD0220F8BD402100082DE9F04FB7
:1007D80083B080460F46A24B984223D003F580632E
:1007E80098421FD003F5806398421BD003F58063BD
:1007F800984217D003F58063984213D003F58063BD
:1008080098420FD003F5806398420BD003F58063BC
:10081800984207D003F58063984203D09148C521D8
:1008280001F0D4FA3B881BB98E48C62101F0CEFAF4
:100838007B68012B22D9112B20D0022B1ED0122B22
:100848001CD0894A934219D002F58012934215D0E0
:1008580002F58012934211D0A2F5F81293420DD0FE
:1008680002F58012934209D002F58012934205D016
:10087800032B03D07B48C72101F0A8FABB68022BE1
:1008880003D97848C82101F0A1FA002428E1A1463B
:100898000125A5403B6803EA050AAA4540F01F81E7
:1008A8007B68022B01D0122B4AD13B69C3B3092BB9
:1008B80036D0ABB3A3B39BB393B3012B30D02FD0B7
:1008C800022B2DD02CD02BD0032B29D0042B27D0B2
:1008D80026D025D0052B23D022D0092B20D0062BBB
:1008E8001ED0092B1CD0072B1AD019D018D0082BD2
:1008F80016D015D014D0092B12D011D00A2B0FD036
:100908000ED00B2B0CD00C2B0AD009D00D2B07D0F6
:100918000C2B05D00F2B03D05248D92101F056FAE1
:10092800E608083658F8261004F0070080000F2360
:10093800834021EA03023B698340134348F8263089
:10094800D8F800304FEA440B032606FA0BF6F643B4
:1009580006EA03027B6803F0030303FA0BF313436D
:10096800C8F800307B685A1E012A03D9112B01D020
:10097800122B1CD1FB68032B03D93A48EC2101F058
:1009880025FAD8F8083006EA0302FB6803FA0BF3E5
:100998001343C8F80830D8F8043023EA05037D6803
:1009A800C5F3001505FA09F51D43C8F80450D8F831
:1009B8000C303340BE6806FA0BF61E43C8F80C60CC
:1009C8007B6813F0805F00F08A80284B5A6C42F4F1
:1009D80080425A645B6C03F480430193019BA30833
:1009E800991C234A52F8211004F0030080000F22BA
:1009F800824021EA02011A4A90453BD002F5806202
:100A080090452BD002F58062904525D002F5806292
:100A180090451FD002F58062904519D002F580629A
:100A2800904513D002F5806290450DD002F58062A2
:100A3800904507D002F58062904501D108221AE05E
:100A4800092218E0072216E0062214E0052212E027
:100A5800042210E003220EE002220CE001220AE048
:100A68000000024070210008000011100038024008
:100A780000380140002282400A4302331B4941F8F2
:100A880023201B4B1A686FEA0A0303EA02017868FD
:100A980010F4803F01D04AEA0201154A11605268F9
:100AA80003EA0201786810F4003F01D04AEA020123
:100AB8000F4A5160926803EA0201786810F4801FB7
:100AC80001D04AEA02010A4A9160D2681340796863
:100AD80011F4001F01D04AEA0203054AD360013429
:100AE8000F2C7FF6D4AE03B0BDE8F08F003801407C
:100AF800003C014030B583B0044603680F2B04D98D
:100B0800B24840F2171101F061F9236813F0010FA0
:100B18005FD06368012B06D9052B04D0AB484FF48E
:100B28008E7101F053F9AA4B9B6803F00C03042B58
:100B38000AD0A74B9B6803F00C03082B0DD1A44BDC
:100B48005B6813F4800F08D0A14B1B6813F4003FB7
:100B58003FD06368002B3CD1FBE100229D4B1A700B
:100B6800FFF72CFC054607E0FFF728FC401B41F285
:100B78008833984200F2EF81954B1B6813F4003FCD
:100B8800F2D12279934B1A7063688BB1FFF716FC88
:100B9800054607E0FFF712FC401B41F288339842F4
:100BA80000F2DB818A4B1B6813F4003FF2D010E09F
:100BB800FFF704FC054607E0FFF700FC401B41F285
:100BC8008833984200F2CB81814B1B6813F4003FB5
:100BD800F2D1236813F0020F6DD0E368012B04D91A
:100BE8007A4840F25D1101F0F1F823691F2B04D90E
:100BF80076484FF4AF7101F0E9F8754B9B6813F034
:100C08000C0F0AD0724B9B6803F00C03082B1CD105
:100C18006F4B5B6813F4800F17D16D4B1B6813F093
:100C2800020F03D0E368012B40F09B8168480268FB
:100C380022F0F8012269F82393FAA3F3B3FA83F3B5
:100C4800DBB29A400A43026035E0E3680BB3012245
:100C5800614B1A60FFF7B2FB054605E0FFF7AEFBF4
:100C6800401B642800F27F81594B1B6813F0020F68
:100C7800F4D05748036823F0F8012269F82393FA5F
:100C8800A3F3B3FA83F3DBB29A4041EA02030360A9
:100C980011E00022504B1A60FFF790FB054605E073
:100CA800FFF78CFB401B642800F25F81484B1B68F0
:100CB80013F0020FF4D1236813F0080F2ED06369E4
:100CC800012B04D941484FF4CF7101F07FF86369D3
:100CD80093B10122414B1A60FFF770FB054605E00E
:100CE800FFF76CFB401B642800F24181384B5B6FB7
:100CF80013F0020FF4D011E00022384B1A60FFF70E
:100D08005DFB054605E0FFF759FB401B642800F230
:100D180030812F4B5B6F13F0020FF4D1236813F06F
:100D2800040F72D0A368012B06D9052B04D02748DD
:100D38004FF4E47101F04AF8254B1A6C42F08052E6
:100D48001A641B6C03F080530193019B244A1368B7
:100D580043F480731360FFF731FB054605E0FFF7A6
:100D68002DFB401B642800F206811D4B1B6813F401
:100D7800807FF4D000221B4B1A70FFF71FFB05463B
:100D880007E0FFF71BFB401B41F28833984200F253
:100D9800F4800F4B1B6F13F0020FF2D1227A114B24
:100DA8001A70A36803B3FFF709FB054607E0FFF7CE
:100DB80005FB401B41F28833984200F2E080044B67
:100DC8001B6F13F0020FF2D01FE000BFB021000824
:100DD800003802400238024000004742800E474275
:100DE8000070004070380240FFF7E8FA054607E057
:100DF800FFF7E4FA401B41F28833984200F2C180C1
:100E0800664B1B6F13F0020FF2D1A369022B04D9B2
:100E180063484FF4037100F0D9FFA369002B00F079
:100E2800B2805E4A926802F00C02082A00F0AD8097
:100E3800022B7BD1E3693BB1B3F5800F04D058484E
:100E480040F2152100F0C2FF236A3F2B04D9544811
:100E580040F2162100F0BAFF636AC03BF02B04D9B8
:100E68004F4840F2172100F0B1FFA36A022B0AD0C5
:100E7800042B08D0062B06D0082B04D048484FF482
:100E8800067100F0A3FFE36A043B0B2B04D9444826
:100E980040F2192100F09AFF0022424B1A60FFF736
:100EA8008DFA054604E0FFF789FA401B64286ED8DE
:100EB8003A4B1B6813F0007FF5D1E169236A1943A7
:100EC800626A47F6C07393FAA3F3B3FA83F3DBB20B
:100ED8009A401143A36A5B08013B4FF4403292FAEF
:100EE800A2F2B2FA82F2D2B293400B43E16A4FF017
:100EF800706292FAA2F2B2FA82F2D2B201FA02F265
:100F08001343264A53600122264B1A60FFF756FA0C
:100F1800044604E0FFF752FA001B642839D81F4B37
:100F28001B6813F0007FF5D0002035E000221D4B30
:100F38001A60FFF743FA044604E0FFF73FFA001B84
:100F4800642828D8154B1B6813F0007FF5D10020C2
:100F580022E0012020E003201EE003201CE0032003
:100F68001AE0012018E0032016E0032014E0032013
:100F780012E0032010E003200EE003200CE0032021
:100F88000AE0032008E0002006E0012004E0032036
:100F980002E0032000E0032003B030BD0038024027
:100FA800B02100086000474270B504460D4603684A
:100FB800013B0E2B04D995484FF41F7100F006FF32
:100FC800072D04D9914840F27D2100F0FFFE904B97
:100FD8001B6803F00F03AB4280F09880EAB28C4B99
:100FE8001A701B6803F00F03AB4240F06B81236853
:100FF80013F0020F1DD0A368A3B1802B12D0902B41
:1010080010D0A02B0ED0B02B0CD0C02B0AD0D02BD8
:1010180008D0E02B06D0F02B04D07C4840F2932176
:1010280000F0D4FE7B498B6823F0F002A3681343D9
:101038008B60236813F0010F00F002816368032BB3
:1010480004D9724840F29A2100F0C0FE6268012A71
:1010580005D1704B1B6813F4003F0FD134E1931E88
:10106800012B05D86B4B1B6813F0007F06D12DE1CF
:10107800684B1B6813F0020F00F02A8165498B68E2
:1010880023F0030313438B60FFF798F90546636861
:10109800012B0FD107E0FFF791F9401B41F288338C
:1010A800984200F217815B4B9B6803F00C03042BFA
:1010B800F1D1C5E0022B0FD107E0FFF77FF9401B04
:1010C80041F28833984200F20781524B9B6803F043
:1010D8000C03082BF1D1B3E0032B11D14D4B9B68C6
:1010E800FFF76CF9401B41F288339842F6D9F5E0D6
:1010F800FFF764F9401B41F28833984200F2F08010
:10110800444B9B6813F00C0FF2D199E0236813F05D
:10111800020F1DD0A368A3B1802B12D0902B10D042
:10112800A02B0ED0B02B0CD0C02B0AD0D02B08D0BF
:10113800E02B06D0F02B04D0344840F2ED2100F02B
:1011480045FE34498B6823F0F002A36813438B6093
:10115800236813F0010F6BD06368032B04D92B4865
:101168004FF43D7100F032FE6268012A05D1294B27
:101178001B6813F4003F0FD1B4E0931E012B05D870
:10118800244B1B6813F0007F06D1ADE0214B1B6890
:1011980013F0020F00F0AA801E498B6823F00303A6
:1011A80013438B60FFF70AF906466368012B0FD1DA
:1011B80007E0FFF703F9801B41F28833984200F2F9
:1011C8009780144B9B6803F00C03042BF1D12FE09C
:1011D800022B0FD107E0FFF7F1F8801B41F28833AB
:1011E800984200F287800B4B9B6803F00C03082B96
:1011F800F1D11DE0032B16D1064B9B68FFF7DEF8F3
:10120800801B41F288339842F6D975E0B021000876
:10121800003C024000380240FFF7D0F8801B41F242
:10122800883398426AD8374B9B6813F00C0FF3D178
:10123800EAB2354B1A701B6803F00F03AB425FD15B
:10124800236813F0040F19D0E36883B1B3F5805F06
:101258000DD0B3F5A05F0AD0B3F5C05F07D0B3F5E2
:10126800E05F04D0294840F24E3100F0AFFD254937
:101278008B6823F4E052E36813438B60236813F010
:10128800080F1AD0236983B1B3F5805F0DD0B3F589
:10129800A05F0AD0B3F5C05F07D0B3F5E05F04D014
:1012A8001A4840F2553100F091FD164A936823F42C
:1012B8006043216943EAC10393600F20FFF748F8B0
:1012C800002070BD012070BD012070BD012070BDDF
:1012D800012070BD032070BD032070BD032070BDC8
:1012E800032070BD012070BD012070BD012070BDBC
:1012F800032070BD032070BD032070BD032070BDA6
:10130800012070BD00380240003C0240B0210008B6
:10131800224B9B6803F00C03042B3DD0082B01D013
:101328001F4870471D4B586800F03F005B6813F476
:10133800800F10D01B4BB3FBF0F3184A506847F6E8
:10134800C072104092FAA2F2B2FA82F2D2B2D0403F
:1013580000FB03F30FE0124BB3FBF0F30F4A5068A6
:1013680047F6C072104092FAA2F2B2FA82F2D2B2F2
:10137800D04000FB03F3094A506800F440304FF4B2
:10138800403292FAA2F2B2FA82F2D2B2D0400130DE
:101398004000B3FBF0F07047024870470038024045
:1013A8000024F40000127A0008B5FFF7B1FF094BDA
:1013B8009B6803F0F002F02393FAA3F3B3FA83F3E4
:1013C800DBB222FA03F3044AD35CD840034B18601B
:1013D80008BD00BF00380240A02100081C00002002
:1013E80030B4036A23F001030362036A4468826924
:1013F80022F073020D682A4323F002038D682B4301
:101408000F4DA84205D005F58065A84203D10125F6
:1014180002E0012500E000255DB123F00803CD6856
:101428002B4323F0040324F440744D692C438D6945
:101438002C43446082614A684263036230BC70474F
:10144800000001402DE9F04104460E46036A23F4EA
:1014580080730362056AD0F80480C76927F07303B4
:101468000F681F4325F400738D6843EA0525204B58
:10147800984205D003F58063984203D1012302E026
:10148800012300E000235BB3F36833B1082B04D0D9
:10149800184841F2283100F099FCB369B3F5007F90
:1014A80005D023B1134841F2293100F08FFC73694C
:1014B800B3F5807F05D023B10E4841F22A3100F000
:1014C80085FC25F40065F36845EA032525F4806565
:1014D80028F44058736948EA0318B36948EA0318BE
:1014E800C4F80480E7617368E3632562BDE8F081AE
:1014F80000000140E02100082DE9F04104460F46B4
:10150800036A23F480530362056AD0F80480C6692D
:1015180026F4E6430E6843EA062625F400538D6850
:1015280043EA0535114B984205D003F5806398428C
:1015380003D1012302E0012300E0002373B17B699A
:10154800B3F5807F05D023B1094841F26E3100F030
:101558003DFC28F480487B6948EA8318C4F8048075
:10156800E6617B6823642562BDE8F08100000140E4
:10157800E0210008704700BF704700BF10B5846BBA
:10158800012384F83930236A834202D10123237668
:1015980010E0636A834202D1022323760AE0A36A39
:1015A800834202D10423237604E0E36A834201D113
:1015B800082323762046FFF7DFFF0023237610BD9C
:1015C800704700BF08B5806B012380F83930FFF7FA
:1015D800F7FF08BD0368454A904214D0B0F1804F28
:1015E80013D0A2F57C42904211D002F5806290425D
:1015F8000FD002F5806290420DD002F578429042F9
:101608000BD101220AE0012208E0012206E00122B2
:1016180004E0012202E0012200E000221AB123F0D6
:1016280070034A681343314A90422CD0B0F1804F7E
:101638002BD0A2F57C42904229D002F580629042DC
:1016480027D002F58062904225D002F57842904278
:1016580023D002F57052904221D002F58062904268
:101668001FD002F5806290421DD0A2F598329042B8
:101678001BD002F58062904219D002F58062904238
:1016880017D1012216E0012214E0012212E0012202
:1016980010E001220EE001220CE001220AE0012202
:1016A80008E0012206E0012204E0012202E0012212
:1016B80000E000221AB123F44073CA6813430360A0
:1016C8008B68C3620B688362084B984205D003F5A8
:1016D8008063984203D1012302E0012300E0002344
:1016E8000BB10B690363012343617047000001409C
:1016F800002871D010B504460368384A934237D0A1
:10170800B3F1804F34D0A2F57C42934230D002F539
:10171800806293422CD002F58062934228D002F571
:101728008062934224D002F58062934220D002F571
:10173800704293421CD002F57052934218D002F5C1
:101748008062934214D002F58062934210D0A2F5D1
:10175800983293420CD002F58062934208D002F589
:101768008062934204D01E4840F2014100F02EFBF3
:10177800A36863B1102B0AD0202B08D0402B06D0C9
:10178800602B04D0164840F2024100F01FFB236989
:1017980053B1B3F5807F07D0B3F5007F04D010486C
:1017A80040F2034100F012FB94F8393013F0FF0FB8
:1017B80005D1002384F838302046FFF7DBFE0223EA
:1017C80084F83930214651F8040BFFF703FF012351
:1017D80084F83930002010BD012070470000014016
:1017E800E02100082DE9F04104460E46036A23F083
:1017F80010030362056AD0F80480876927F4E6437A
:101808000F6843EA072725F020038D6843EA05158A
:10181800204B984205D003F58063984203D10123F9
:1018280002E0012300E000235BB3F36833B1082B27
:1018380004D0194841F2142100F0C8FAB369B3F58D
:10184800007F05D023B1144841F2152100F0BEFAFB
:101858007369B3F5807F05D023B10F4841F2162193
:1018680000F0B4FA25F08005F36845EA031525F081
:10187800400528F44068736948EA8308B36948EA70
:101888008308C4F80480A7617368A3632562BDE870
:10189800F08100BF00000140E021000890F83830D6
:1018A800012B00F04B8170B516460D460446012306
:1018B80080F8383062B1042A0AD0082A08D00C2AE5
:1018C80006D0182A04D09E4840F66C4100F07EFAF3
:1018D8002B68602B06D0702B04D0994840F66D41D8
:1018E80000F074FAAB6833B1022B04D0944840F688
:1018F8006E4100F06BFAEB6833B1082B04D09048C6
:1019080040F66F4100F062FAAB69B3F5007F05D08D
:1019180023B18B484FF4476100F058FA6B69B3F56F
:10192800807F05D023B1864840F6714100F04EFA19
:101938002B6933B1042B04D0814840F6724100F082
:1019480045FA022384F839300C2E00F2F080DFE8E3
:1019580016F00D00EE00EE00EE005500EE00EE0071
:10196800EE008E00EE00EE00EE00BE002368754A21
:1019780093422FD0B3F1804F2CD0A2F57C429342F2
:1019880028D002F58062934224D002F58062934207
:1019980020D002F5784293421CD002F5705293424F
:1019A80018D002F58062934214D002F58062934207
:1019B80010D0A2F5983293420CD002F5806293427F
:1019C80008D002F58062934204D05D4840F67A411F
:1019D80000F0FCF920682946FFF702FD22689369A8
:1019E80043F0080393612268936923F00403936129
:1019F800226891692B690B43936198E02368514AE7
:101A080093421FD0B3F1804F1CD0A2F57C42934281
:101A180018D002F58062934214D002F58062934296
:101A280010D002F5784293420CD002F570529342DE
:101A380008D0A2F59432934204D0414840F6894137
:101A480000F0C4F920682946FFF7CCFE22689369A4
:101A580043F4006393612268936923F4806393617C
:101A680022689369296943EA012393615FE0236847
:101A7800344A934217D0B3F1804F14D0A2F57C4278
:101A8800934210D002F5806293420CD002F5806236
:101A9800934208D002F57842934204D0284840F691
:101AA800984100F093F920682946FFF7CBFC22689B
:101AB800D36943F00803D3612268D36923F0040390
:101AC800D3612268D1692B690B43D3612FE0236866
:101AD8001C4A934217D0B3F1804F14D0A2F57C4230
:101AE800934210D002F5806293420CD002F58062D6
:101AF800934208D002F57842934204D0104840F649
:101B0800A74100F063F920682946FFF7F5FC226831
:101B1800D36943F40063D3612268D36923F48063F3
:101B2800D3612268D369296943EA0123D361012378
:101B380084F83930002084F8380070BD02207047DE
:101B4800E02100080000014070B504460E46154625
:101B5800254B98422FD0B0F1804F2CD0A3F57C4371
:101B6800984228D003F58063984224D003F5806317
:101B7800984220D003F5784398421CD003F570535F
:101B8800984218D003F58063984214D003F5806317
:101B9800984210D0A3F5983398420CD003F580638F
:101BA800984208D003F58063984204D00F4841F268
:101BB800992100F00BF966B1042E0AD0082E08D03E
:101BC8000C2E06D0182E04D0084841F29A2100F0B5
:101BD800FDF80123B340226A22EA03032362236A41
:101BE800B5401D43256270BD00000140E02100089A
:101BF800F8B504460D4616461F460368624A9342E6
:101C080012D0B3F1804F0FD0A2F57C4293420BD093
:101C180002F58062934207D002F58062934203D0B6
:101C280002F57842934206D135B3042D24D0082D0D
:101C380022D00C2D20D0554A934202D1E5B1042D73
:101C48001AD0534A934200D1B5B1524A934200D1B7
:101C580095B1514A934202D175B1042D0CD04F4A27
:101C6800934200D145B14E4A934200D125B14D4827
:101C780040F2365100F0AAF894F83930DBB2022B62
:101C88007ED094F83930DBB2012B05D10EB9002F84
:101C980078D1022384F839300C2D53D8DFE805F0C9
:101CA800075252521A5252522D5252524000236A2F
:101CB8003D4ADA63236A3D4A9A642268206A3146BB
:101CC80034323B46FEF73AFD2268D36843F400738A
:101CD800D36037E0636A344ADA63636A334A9A64E2
:101CE8002268606A314638323B46FEF727FD226893
:101CF800D36843F48063D36024E0A36A2A4ADA6392
:101D0800A36A2A4A9A642268A06A31463C323B4652
:101D1800FEF714FD2268D36843F40063D36011E032
:101D2800E36A214ADA63E36A204A9A642268E06A2D
:101D3800314640323B46FEF701FD2268D36843F442
:101D48008053D360206829460122FFF7FDFE2368EF
:101D58000D4A934205D002F58062934203D10122D5
:101D680002E0012200E000221AB15A6C42F400425B
:101D78005A642268136843F0010313600020F8BD19
:101D88000220F8BD0120F8BD0000014000400140DC
:101D9800004401400048014000180040001C004079
:101DA80000200040E021000885150008CD15000836
:101DB800FEE700BF08B50120FFF7FAFF0123036023
:101DC800014B0B60704700BF0400002008B5FFF707
:101DD800F1FF00BF08B500F001F808BD0C4B1A6808
:101DE80042F001021A60002199601A6822F0847298
:101DF80022F480321A60074A5A601A6822F4802254
:101E08001A60D9604FF00062034B9A60704700BFB8
:101E1800003802401030002400ED00E0234B9B689E
:101E280003F00C03042B07D0082B09D0002B2DD16D
:101E38001F4A204B1A602CE01F4A1E4B1A6028E0EC
:101E48001A4B5A685B6803F03F0312F4800F09D0FD
:101E5800194AB2FBF3F2154B5B68C3F3881303FB13
:101E680002F208E0124AB2FBF3F3104A5168C1F3D8
:101E7800881101FB03F20D4B5B68C3F30143013387
:101E88005B00B2FBF3F30B4A136002E0084A094B0C
:101E98001A60064B9B68C3F30313084AD25CD2B29C
:101EA80004490B68D3400B60704700BF00380240FC
:101EB8000024F4001C00002000127A000C0000200E
:101EC8002DE9F04385B081464A4E336B43F0080351
:101ED8003363336B03F008030193019B464D4FF4C2
:101EE80040432B6002236B600024AC604FF0030872
:101EF800C5F80C802B61414F38462946FEF766FC31
:101F08004FF440532B6001236B60AB60C5F80C8025
:101F180038462946FEF75AFC336C43F00403336411
:101F2800336C03F004030293029B354D6C60AC6084
:101F3800DFF8E480C5F800806823EB602C616C61F1
:101F48002846FFF7D5FB2F4F60233B607C6109F1E2
:101F5800FF337B60BC60FC60BC613C612846FFF7D6
:101F6800C7FB284639460822FFF798FCD8F80C30FA
:101F780043F00903C8F80C30336B43F400133363A0
:101F8800336B03F400130393039B1F4806F5215694
:101F980006604FF08063436040238360C4604FF461
:101FA800806303614FF40063436184614FF480737D
:101FB800C3614FF4003303624462A862FEF7B2FAC9
:101FC800124F284608213A463023FFF711FE104BDE
:101FD800B360F7600720FEF7F7F90D202146224687
:101FE800FEF710FA4FF400520A4B1A6005B0BDE82C
:101FF800F08300BF00380240D8000020000C0240E7
:1020080080000020BC00002030000020EC000020F0
:102018003C08004000E100E00008004070B594B0C2
:102028001F4B1A6C42F080521A641B6C03F08053E9
:102038000193019B1B4B1A6842F480421A601B688B
:1020480003F480430293029B0224089401230B9318
:1020580010230C930E9400260F9610934FF4A87338
:10206800119304251295139508A8FEF743FD05233F
:102078000393049405964FF480530693079603A898
:102088002146FEF791FFFFF78FF9074BA3FB0030BE
:102098008009FEF7F9F92846FEF70CFA14B070BD6E
:1020A8000038024000700040D34D621008B5FEF7BA
:1020B80063F9FFF7B3FFFFF7B1FE08BD08B5FFF7F7
:1020C8008DFEFFF7ABFF00F00BF84320FFF7F8FE9B
:1020D800024BD3F80021D3F80032F9E700E100E021
:1020E80008B50320FEF770F94FF0FF3000210A46CB
:1020F800FEF788F908BD00BF08B5FEF757F9FEF7E7
:10210800F7F908BD2E2E2F73797374656D2F7372CE
:10211800632F73746D333266342D68616C2F73745A
:102128006D3332663478785F68616C5F636F7274A0
:1021380065782E63000000002E2E2F737973746566
:102148006D2F7372632F73746D333266342D68612B
:102158006C2F73746D3332663478785F68616C5FA6
:10216800646D612E630000002E2E2F7379737465E1
:102178006D2F7372632F73746D333266342D6861FB
:102188006C2F73746D3332663478785F68616C5F76
:102198006770696F2E6300000000000001020304ED
:1021A80001020304060708092E2E2F73797374653C
:1021B8006D2F7372632F73746D333266342D6861BB
:1021C8006C2F73746D3332663478785F68616C5F36
:1021D8007263632E630000002E2E2F73797374656B
:1021E8006D2F7372632F73746D333266342D68618B
:1021F8006C2F73746D3332663478785F68616C5F06
:0822080074696D2E63000000F3
:10221000785634122C00002000000000000000005E
:102220000000000001020304060708090024F4006E
:042230003254769816
:040000050800018965
:00000001FF
